{
  "contractName": "Storage",
  "abi": [
    {
      "constant": true,
      "inputs": [
        {
          "name": "",
          "type": "bytes32"
        }
      ],
      "name": "storg",
      "outputs": [
        {
          "name": "",
          "type": "string"
        }
      ],
      "payable": false,
      "stateMutability": "view",
      "type": "function"
    },
    {
      "constant": false,
      "inputs": [
        {
          "name": "key",
          "type": "bytes32"
        },
        {
          "name": "val",
          "type": "string"
        }
      ],
      "name": "store",
      "outputs": [],
      "payable": false,
      "stateMutability": "nonpayable",
      "type": "function"
    }
  ],
  "bytecode": "0x6060604052341561000f57600080fd5b61030f8061001e6000396000f30060606040526004361061004c576000357c0100000000000000000000000000000000000000000000000000000000900463ffffffff1680638e9886a9146100515780639d105a25146100f1575b600080fd5b341561005c57600080fd5b61007660048080356000191690602001909190505061015b565b6040518080602001828103825283818151815260200191508051906020019080838360005b838110156100b657808201518184015260208101905061009b565b50505050905090810190601f1680156100e35780820380516001836020036101000a031916815260200191505b509250505060405180910390f35b34156100fc57600080fd5b61015960048080356000191690602001909190803590602001908201803590602001908080601f0160208091040260200160405190810160405280939291908181526020018383808284378201915050505050509190505061020b565b005b60006020528060005260406000206000915090508054600181600116156101000203166002900480601f0160208091040260200160405190810160405280929190818152602001828054600181600116156101000203166002900480156102035780601f106101d857610100808354040283529160200191610203565b820191906000526020600020905b8154815290600101906020018083116101e657829003601f168201915b505050505081565b806000808460001916600019168152602001908152602001600020908051906020019061023992919061023e565b505050565b828054600181600116156101000203166002900490600052602060002090601f016020900481019282601f1061027f57805160ff19168380011785556102ad565b828001600101855582156102ad579182015b828111156102ac578251825591602001919060010190610291565b5b5090506102ba91906102be565b5090565b6102e091905b808211156102dc5760008160009055506001016102c4565b5090565b905600a165627a7a72305820f4fdbafef04f423964978498c405181404e2dc5ff50774b64f1f02692e7748d50029",
  "source": "pragma solidity ^0.4.0;\n\ncontract Storage {\n  mapping (bytes32 => string) public storg;\n  \n  function store(bytes32 key, string val) public {\n    storg[key] = val;\n  }\n}\n",
  "sourcePath": "/home/sean/Documents/YADQL/contract/contracts/Storage.sol",
  "compiler": {
    "name": "solc",
    "version": "0.4.18+commit.9cf6e910.Emscripten.clang"
  },
  "schemaVersion": "1.0.1",
  "updatedAt": "2018-01-07T08:31:48.414Z"
}