{
  "contractName": "YadqlStorage",
  "abi": [
    {
      "constant": true,
      "inputs": [
        {
          "name": "",
          "type": "bytes4"
        }
      ],
      "name": "db",
      "outputs": [
        {
          "name": "",
          "type": "address"
        }
      ],
      "payable": false,
      "stateMutability": "view",
      "type": "function"
    },
    {
      "constant": false,
      "inputs": [
        {
          "name": "pubkey",
          "type": "bytes4"
        },
        {
          "name": "key",
          "type": "bytes32"
        },
        {
          "name": "val",
          "type": "string"
        }
      ],
      "name": "store",
      "outputs": [],
      "payable": false,
      "stateMutability": "nonpayable",
      "type": "function"
    }
  ],
  "bytecode": "0x6060604052341561000f57600080fd5b6108c18061001e6000396000f30060606040526004361061004c576000357c0100000000000000000000000000000000000000000000000000000000900463ffffffff16806381f1284214610051578063a7e1d75f146100d3575b600080fd5b341561005c57600080fd5b61009160048080357bffffffffffffffffffffffffffffffffffffffffffffffffffffffff1916906020019091905050610165565b604051808273ffffffffffffffffffffffffffffffffffffffff1673ffffffffffffffffffffffffffffffffffffffff16815260200191505060405180910390f35b34156100de57600080fd5b61016360048080357bffffffffffffffffffffffffffffffffffffffffffffffffffffffff19169060200190919080356000191690602001909190803590602001908201803590602001908080601f01602080910402602001604051908101604052809392919081815260200183838082843782019150505050505091905050610198565b005b60006020528060005260406000206000915054906101000a900473ffffffffffffffffffffffffffffffffffffffff1681565b60008073ffffffffffffffffffffffffffffffffffffffff16600080867bffffffffffffffffffffffffffffffffffffffffffffffffffffffff19167bffffffffffffffffffffffffffffffffffffffffffffffffffffffff1916815260200190815260200160002060009054906101000a900473ffffffffffffffffffffffffffffffffffffffff1673ffffffffffffffffffffffffffffffffffffffff161415156103ab57600080857bffffffffffffffffffffffffffffffffffffffffffffffffffffffff19167bffffffffffffffffffffffffffffffffffffffffffffffffffffffff1916815260200190815260200160002060009054906101000a900473ffffffffffffffffffffffffffffffffffffffff1673ffffffffffffffffffffffffffffffffffffffff16639d105a2584846040518363ffffffff167c010000000000000000000000000000000000000000000000000000000002815260040180836000191660001916815260200180602001828103825283818151815260200191508051906020019080838360005b8381101561034657808201518184015260208101905061032b565b50505050905090810190601f1680156103735780820380516001836020036101000a031916815260200191505b509350505050600060405180830381600087803b151561039257600080fd5b6102c65a03f115156103a357600080fd5b505050610552565b6103b3610558565b604051809103906000f08015156103c957600080fd5b905080600080867bffffffffffffffffffffffffffffffffffffffffffffffffffffffff19167bffffffffffffffffffffffffffffffffffffffffffffffffffffffff1916815260200190815260200160002060006101000a81548173ffffffffffffffffffffffffffffffffffffffff021916908373ffffffffffffffffffffffffffffffffffffffff1602179055508073ffffffffffffffffffffffffffffffffffffffff16639d105a2584846040518363ffffffff167c010000000000000000000000000000000000000000000000000000000002815260040180836000191660001916815260200180602001828103825283818151815260200191508051906020019080838360005b838110156104f15780820151818401526020810190506104d6565b50505050905090810190601f16801561051e5780820380516001836020036101000a031916815260200191505b509350505050600060405180830381600087803b151561053d57600080fd5b6102c65a03f1151561054e57600080fd5b5050505b50505050565b60405161032d806105698339019056006060604052341561000f57600080fd5b61030f8061001e6000396000f30060606040526004361061004c576000357c0100000000000000000000000000000000000000000000000000000000900463ffffffff1680638e9886a9146100515780639d105a25146100f1575b600080fd5b341561005c57600080fd5b61007660048080356000191690602001909190505061015b565b6040518080602001828103825283818151815260200191508051906020019080838360005b838110156100b657808201518184015260208101905061009b565b50505050905090810190601f1680156100e35780820380516001836020036101000a031916815260200191505b509250505060405180910390f35b34156100fc57600080fd5b61015960048080356000191690602001909190803590602001908201803590602001908080601f0160208091040260200160405190810160405280939291908181526020018383808284378201915050505050509190505061020b565b005b60006020528060005260406000206000915090508054600181600116156101000203166002900480601f0160208091040260200160405190810160405280929190818152602001828054600181600116156101000203166002900480156102035780601f106101d857610100808354040283529160200191610203565b820191906000526020600020905b8154815290600101906020018083116101e657829003601f168201915b505050505081565b806000808460001916600019168152602001908152602001600020908051906020019061023992919061023e565b505050565b828054600181600116156101000203166002900490600052602060002090601f016020900481019282601f1061027f57805160ff19168380011785556102ad565b828001600101855582156102ad579182015b828111156102ac578251825591602001919060010190610291565b5b5090506102ba91906102be565b5090565b6102e091905b808211156102dc5760008160009055506001016102c4565b5090565b905600a165627a7a723058206fe6b072e848770fe5cbe3afec2e7a3e8368c125fb5af573186b50ab5ca7f15b0029a165627a7a72305820741889aa77d5668f7239cee2ba940ad1cde470b2535cfdde72e06370f3c4bf0e0029",
  "source": "pragma solidity ^0.4.0;\nimport \"./Storage.sol\";\n\ncontract YadqlStorage {\n  mapping (bytes4 => Storage) public db;\n  \n  function store(bytes4 pubkey, bytes32 key, string val) public {\n    if (db[pubkey] != address(0x0)) {\n      db[pubkey].store(key, val);\n    } else {\n      Storage x = new Storage();\n      db[pubkey] = x;\n      x.store(key, val);\n    }\n  }\n}\n",
  "sourcePath": "/home/insi/Projects/YADQL/contract/contracts/YadqlStorage.sol",
  "compiler": {
    "name": "solc",
    "version": "0.4.18+commit.9cf6e910.Emscripten.clang"
  },
  "schemaVersion": "1.0.1",
  "updatedAt": "2018-01-07T08:28:27.646Z"
}